:1000000072C0A6C08BC08AC089C088C087C086C0A5
:1000100085C084C083C082C081C080C07FC07EC0D4
:100020007DC07CC07BC004030904220377007700F5
:1000300077002E00630072007900700074006F007A
:100040006D00790073002E006400650016035600F1
:100050002D005500530042002D004D004900440082
:100060004900010204081020010201021020401280
:1000700001100100000008C016E4050100010200A3
:10008000010902650002010080320904000000013C
:100090000100000924010001090001010904010017
:1000A00002010300000724010001410006240201AF
:1000B00001000624020202000924030103010201D7
:1000C00000092403020401010100090501030800DD
:1000D0000A000005250101010905810308000A0045
:1000E00000052501010311241FBECFE5D4E0DEBFCA
:1000F000CDBF10E0A0E6B0E0E6EDFAE002C005906A
:100100000D92A237B107D9F710E0A2E7B0E001C025
:100110001D92AC3AB107E1F777D3DBC471CFA82FBA
:10012000B92F80E090E041E050EA60956F5F58F4AD
:100130002D9138EF82279795879510F08427952782
:100140003F5FC8F3F3CF0895EADF8D939D93089541
:10015000CF93CFB7CF93C395839BE9F7839B09C018
:10016000839B07C0839B05C0839B03C0839B01C007
:10017000A6C0DF93C0918F00DD27CA56DF4F839B57
:1001800002C0DF91EBCF2F930F931F9300B32FEF9C
:1001900003FB20F94F933F9310B34FEF012703FB6D
:1001A00021F93BE031C04E7F012F10B3216028C000
:1001B000102F4D7F2260000000B329C04B7F2460C8
:1001C000012F000010B32BC010B3477F28602AC056
:1001D0004F7E00B320612CC04F7D10B320622FC032
:1001E0004F7B00B3206432C0422700B349934FEFE6
:1001F0000000102713FB20F910B31C70C9F1297FF0
:1002000091F2012703FB21F900B3237F89F23150DA
:1002100058F1102713FB22F910B3277E79F201273A
:1002200003FB23F92F7C81F200B3102713FB24F981
:100230002F7971F200C010B3012703FB25F92F734A
:1002400059F200C000B3102713FB26F9223040F208
:1002500000C010B3012703FB27F9243028F64F779D
:10026000206810B30000F9CF10E41ABF00271CC0AB
:100270003B503195C31BD04010E41ABF0881033CAA
:1002800011F10B3401F120918D001981110F12131E
:10029000EDCF4A81441F093659F10D3211F0013E6C
:1002A00029F74F7009F0042F009394003F914F916C
:1002B0001F910F912F91DF91CAB7C6FD4CCFCF91FF
:1002C000CFBFCF91189520919400222379F31091FC
:1002D0009200112369F534306AF130939200209333
:1002E0008E0010918F003BE0311B30938F0022C0B5
:1002F000009192000130E4F40AE54F7049F4309126
:10030000600034FD19C000936000C6E7D0E018C05B
:100310003091810034FD10C000938100C2E8D0E02C
:100320000FC02795A8F45150A9F4220F0000F9CF6F
:100330004AE503C042ED01C0432FC4E1D0E032E002
:1003400011B31C60939A11BB02B320E41CE05F93CD
:10035000012756E002BB279520F4515021F4220FCB
:10036000F9CF012756E000003B5A02BBD0F2279597
:1003700028F4515029F4220F0000F9CF012756E04C
:10038000279502BB20F4515021F4220FF9CF012709
:1003900056E02991332302BB21F6037F109193008D
:1003A000110FC651D04002BB11F010938D0010E424
:1003B0001ABF086011B3137F402F437F5F9100C0C5
:1003C00000C002BB11BB42BB71CF85B7836085BF44
:1003D0008BB780648BBF8BE4809382008AE5809327
:1003E000810008951F93DC01162F809181008E31CA
:1003F000E9F08091810084FF07C08091820098E835
:1004000089278093820003C08AE580938100912F21
:10041000E3E8F0E08D91819391501916DCF383E8C5
:1004200090E0612F91DE1C5F109381001F91089571
:100430001F93CF93DF9360919200635067FDCBC011
:1004400080918F00CCE0D0E0C81BD109CA56DF4FA5
:1004500080918E00803118F4CE0157D1BAC08D3210
:1004600009F0A7C0683009F0B4C083EC809376002F
:100470008AE580936000109272009881892F8076BF
:1004800021F0CE0129D1282F81C02A813C811092F0
:100490007F008981882381F49F71923049F431383B
:1004A00039F4809181008E3119F481E080937F00CE
:1004B0001092800022E063C0813011F0833089F413
:1004C000222309F05BC0313809F058C0813011F0A7
:1004D0008EE101C08AE5809381008BE480938200E5
:1004E0004DC0853019F42093930048C0863079F5CB
:1004F0008B81813011F0823021F4CE01D9D0282FA8
:1005000022C08330F9F48A81882341F486E290E0A6
:10051000909391008093900024E015C0813041F4C5
:100520008AE290E0909391008093900022E20BC0C9
:10053000823041F48CE490E090939100809390009D
:1005400026E101C020E080E4809372001FC0883063
:1005500021F421E085E990E014C0893019F420935A
:10056000950009C08A3011F421E009C08B3031F4C4
:100570008BE4809382008AE58093810020E08FE7FE
:1005800090E0909391008093900009C02F3F39F440
:10059000888187FD2E8180E88093720006C08F815C
:1005A000882319F48E81821708F0822F80936100CE
:1005B00010C08091720087FF0CC0CE01A4D08F3F85
:1005C00021F48EE18093600004C0882311F0109222
:1005D0006100109292008091600084FF58C0809169
:1005E00061008F3F09F453C0182F893008F018E0DC
:1005F000811B809361008091760098E88927809321
:100600007600112391F18091720087FF08C087E77F
:1006100090E0612F6ED0182F893098F526C0209178
:1006200090003091910086FF0DC0A7E7B0E080E018
:1006300090E0F901E80FF91FE491ED930196181786
:10064000C1F708C0912FD901E7E7F0E08D918193C0
:100650009150E1F71150812F90E01F5F0196820FBA
:10066000931F909391008093900087E790E0612F13
:100670006BDD612F6C5F6C3041F08FEF8093610018
:1006800004C08FEF809361006EE16093600094E19D
:1006900080B38C7049F49150D9F710929300109266
:1006A0008D008AE580938100DF91CF911F9108959D
:1006B000FC018381813041F48FE690E090939100BA
:1006C0008093900082E1089581E890E090939100FA
:1006D0008093900085E60895FC01E0818E2F80765E
:1006E000803229F4E7FD03C081E0809375008FEF2D
:1006F0000895FC01108211821282138214821582E5
:10070000168287E0089581E00895089587B93E9A9A
:100710003D9886B1876086B9379A369A3699FECF6A
:1007200094B185B1382F20E0290F311DC9010895FA
:1007300014BA8FEF85BB17BA88BB0895EF92FF926A
:100740000F931F93CF93DF93EC01162F60E070E0BF
:10075000412F50E0B7D114BA8FEF85BB17BA88BBD1
:10076000A0E0B1E060E070E00FEF80E3E82E85E705
:10077000F82E6630710564F414BA05BBFB01EE591E
:10078000FF4FE491E7BB88B3E095E823E8BB0BC0DB
:1007900017BA08BBFB01EE59FF4FE491E4BB85B3E8
:1007A000E095E823E5BBC7010197F1F74AE650E081
:1007B000FA01249180B330E090E080959095282351
:1007C0003923232B39F0FE01EA0FF11DB083AF5F0F
:1007D000A11769F0BF5F4F5F5F4FF0E04F365F07D3
:1007E00039F76F5F7F4F6830710509F0C2CF14BAD7
:1007F0008FEF85BB17BA88BB8A2FDF91CF911F91EE
:100800000F91FF90EF9008952F923F924F925F9239
:100810006F927F928F929F92AF92BF92CF92DF9210
:10082000EF92FF920F931F93DF93CF93CDB7DEB775
:10083000E4970FB6F894DEBF0FBECDBFDE0155962C
:10084000E2E6F0E080E101900D928150E1F78AE06C
:10085000FE013196DF01982F1D929A95E9F7FE016E
:100860003B96DF011D928A95E9F72EE088E190E042
:100870000FB6F894A89581BD0FBE21BD83EF82BB52
:100880008CE081BB11BA8FEF82BB11BA18BA87BB5B
:1008900085BB8FE084BB99DD10927500789404E0ED
:1008A000F02E5E010894A11CB11C1BE0812E912C3E
:1008B0008C0E9D1EB5E16B2E712C6C0E7D1EA5E27B
:1008C000CA2ED12CCC0EDD1EFFE73F2EEBE02E2EE4
:1008D0005524539478E0472E60E8E62EA895A8DDCD
:1008E000C5016AE02BDF1092740010927300A2C061
:1008F0008C91E81711F400E005C01196A815B90510
:10090000B9F701E02A0D3B1DF9019081F4018081C6
:10091000981711F410E008C03196E615F705B9F7FD
:1009200011E002C0A89584DD8091810084FFFACF98
:100930008091810084FF75C0812F802BE1F100231D
:1009400011F460E00DC04DA2EEA2E0917300F091B1
:100950007400E80DF91D80818D5D8FA318A664E0F9
:10096000112321F1F601E60FF11D89E08083962F16
:100970009F5FF601E90FF11DA0E9A0839F5FD601FB
:10098000A90FB11DE0917300F0917400EA0DFB1DF9
:1009900080818D5D8C939F5FF601E90FF11D3082A0
:1009A0006C5F683019F45092750002C010927500A7
:1009B000C60118DD35C08F2DA9DE8C018F2DA6DE76
:1009C000800F911F62E070E056D09B01EF2DF0E0A8
:1009D000EE0FFF1FEA0DFB1D84899589861B970B7F
:1009E00007960F97A8F0758B648B2DA2B0EBBEA372
:1009F000E6E4FE0EFFA2FAEBFF0E43E035952795E5
:100A00004A95E1F728A710927500C60164E0EADC78
:100A1000F39487E0F82295E09F1510F492E0F92E08
:100A200007DD80917300909174000196909374009B
:100A30008093730020917300309174002A30310547
:100A400034F4F401E20FF31FE081D50151CFD50159
:100A5000F40120E030E004C08D9181932F5F3F4F7F
:100A60002A303105CCF3309374002093730085B3A2
:100A7000809585BB33CF97FB092E07260AD077FDDB
:100A800004D00CD006D000201AF4709561957F4FE9
:100A90000895F6F7909581959F4F0895AA1BBB1B6B
:100AA00051E107C0AA1FBB1FA617B70710F0A61B6E
:100AB000B70B881F991F5A95A9F780959095BC018F
:100AC000CD010895DC0101C06D9341505040E0F725
:060AD0000895F894FFCF29
:100AD6005AFFFFFFFFFFFFFFFFFFFFFFFFFFFFFFC5
:020AE600FFFF10
:00000001FF
